{
  "_format": "hh-sol-artifact-1",
  "contractName": "Lottery",
  "sourceName": "contracts/Lottery.sol",
  "abi": [
    {
      "inputs": [],
      "stateMutability": "nonpayable",
      "type": "constructor"
    },
    {
      "inputs": [],
      "name": "claimPrize",
      "outputs": [],
      "stateMutability": "nonpayable",
      "type": "function"
    },
    {
      "inputs": [],
      "name": "claimed",
      "outputs": [
        {
          "internalType": "bool",
          "name": "",
          "type": "bool"
        }
      ],
      "stateMutability": "view",
      "type": "function"
    },
    {
      "inputs": [],
      "name": "enter",
      "outputs": [],
      "stateMutability": "payable",
      "type": "function"
    },
    {
      "inputs": [],
      "name": "getManager",
      "outputs": [
        {
          "internalType": "address",
          "name": "",
          "type": "address"
        }
      ],
      "stateMutability": "view",
      "type": "function"
    },
    {
      "inputs": [],
      "name": "getPlayers",
      "outputs": [
        {
          "internalType": "address payable[]",
          "name": "",
          "type": "address[]"
        }
      ],
      "stateMutability": "view",
      "type": "function"
    },
    {
      "inputs": [],
      "name": "getTotalParticipants",
      "outputs": [
        {
          "internalType": "uint256",
          "name": "",
          "type": "uint256"
        }
      ],
      "stateMutability": "view",
      "type": "function"
    },
    {
      "inputs": [],
      "name": "getTotalPrizePool",
      "outputs": [
        {
          "internalType": "uint256",
          "name": "",
          "type": "uint256"
        }
      ],
      "stateMutability": "view",
      "type": "function"
    },
    {
      "inputs": [],
      "name": "getWinner",
      "outputs": [
        {
          "internalType": "address",
          "name": "",
          "type": "address"
        }
      ],
      "stateMutability": "view",
      "type": "function"
    },
    {
      "inputs": [],
      "name": "isComplete",
      "outputs": [
        {
          "internalType": "bool",
          "name": "",
          "type": "bool"
        }
      ],
      "stateMutability": "view",
      "type": "function"
    },
    {
      "inputs": [],
      "name": "manager",
      "outputs": [
        {
          "internalType": "address",
          "name": "",
          "type": "address"
        }
      ],
      "stateMutability": "view",
      "type": "function"
    },
    {
      "inputs": [],
      "name": "minimumParticipants",
      "outputs": [
        {
          "internalType": "uint256",
          "name": "",
          "type": "uint256"
        }
      ],
      "stateMutability": "view",
      "type": "function"
    },
    {
      "inputs": [],
      "name": "pickWinner",
      "outputs": [],
      "stateMutability": "nonpayable",
      "type": "function"
    },
    {
      "inputs": [
        {
          "internalType": "uint256",
          "name": "",
          "type": "uint256"
        }
      ],
      "name": "players",
      "outputs": [
        {
          "internalType": "address payable",
          "name": "",
          "type": "address"
        }
      ],
      "stateMutability": "view",
      "type": "function"
    },
    {
      "inputs": [],
      "name": "totalParticipants",
      "outputs": [
        {
          "internalType": "uint256",
          "name": "",
          "type": "uint256"
        }
      ],
      "stateMutability": "view",
      "type": "function"
    },
    {
      "inputs": [],
      "name": "totalPrizePool",
      "outputs": [
        {
          "internalType": "uint256",
          "name": "",
          "type": "uint256"
        }
      ],
      "stateMutability": "view",
      "type": "function"
    },
    {
      "inputs": [],
      "name": "winner",
      "outputs": [
        {
          "internalType": "address payable",
          "name": "",
          "type": "address"
        }
      ],
      "stateMutability": "view",
      "type": "function"
    }
  ],
  "bytecode": "0x608060405234801561001057600080fd5b50336000806101000a81548173ffffffffffffffffffffffffffffffffffffffff021916908373ffffffffffffffffffffffffffffffffffffffff1602179055506000600560006101000a81548160ff0219169083151502179055506000600560016101000a81548160ff021916908315150217905550600060038190555060006004819055506002600681905550610dbf806100ae6000396000f3fe6080604052600436106100f35760003560e01c8063a26dbf261161008a578063dfbf53ae11610059578063dfbf53ae146102d4578063e834a834146102ff578063e97dcb621461032a578063f71d96cb14610334576100f3565b8063a26dbf2614610228578063a90cc44514610253578063b2fa1c9e1461027e578063d5009584146102a9576100f3565b80635d495aea116100c65780635d495aea146101a457806370740ac9146101bb5780638b5b9ccc146101d25780638e7ea5b2146101fd576100f3565b8063160a48b9146100f8578063398ab9a714610123578063481c6a751461014e5780634c59706014610179575b600080fd5b34801561010457600080fd5b5061010d610371565b60405161011a9190610b44565b60405180910390f35b34801561012f57600080fd5b5061013861037b565b6040516101459190610b44565b60405180910390f35b34801561015a57600080fd5b50610163610381565b6040516101709190610ad1565b60405180910390f35b34801561018557600080fd5b5061018e6103a5565b60405161019b9190610b44565b60405180910390f35b3480156101b057600080fd5b506101b96103ab565b005b3480156101c757600080fd5b506101d0610509565b005b3480156101de57600080fd5b506101e761061a565b6040516101f49190610b07565b60405180910390f35b34801561020957600080fd5b506102126106a8565b60405161021f9190610ad1565b60405180910390f35b34801561023457600080fd5b5061023d6106d2565b60405161024a9190610b44565b60405180910390f35b34801561025f57600080fd5b506102686106d8565b6040516102759190610b44565b60405180910390f35b34801561028a57600080fd5b506102936106e2565b6040516102a09190610b29565b60405180910390f35b3480156102b557600080fd5b506102be6106f5565b6040516102cb9190610ad1565b60405180910390f35b3480156102e057600080fd5b506102e961071e565b6040516102f69190610aec565b60405180910390f35b34801561030b57600080fd5b50610314610744565b6040516103219190610b29565b60405180910390f35b610332610757565b005b34801561034057600080fd5b5061035b6004803603810190610356919061097c565b61081b565b6040516103689190610aec565b60405180910390f35b6000600454905090565b60045481565b60008054906101000a900473ffffffffffffffffffffffffffffffffffffffff1681565b60065481565b60008054906101000a900473ffffffffffffffffffffffffffffffffffffffff1673ffffffffffffffffffffffffffffffffffffffff163373ffffffffffffffffffffffffffffffffffffffff161461040357600080fd5b600654600180549050101561041757600080fd5b600560009054906101000a900460ff161561043157600080fd5b6001808054905061044061085a565b61044a9190610ce3565b81548110610481577f4e487b7100000000000000000000000000000000000000000000000000000000600052603260045260246000fd5b9060005260206000200160009054906101000a900473ffffffffffffffffffffffffffffffffffffffff16600260006101000a81548173ffffffffffffffffffffffffffffffffffffffff021916908373ffffffffffffffffffffffffffffffffffffffff1602179055506001600560006101000a81548160ff021916908315150217905550565b600260009054906101000a900473ffffffffffffffffffffffffffffffffffffffff1673ffffffffffffffffffffffffffffffffffffffff163373ffffffffffffffffffffffffffffffffffffffff161461056357600080fd5b600560009054906101000a900460ff1661057c57600080fd5b600260009054906101000a900473ffffffffffffffffffffffffffffffffffffffff1673ffffffffffffffffffffffffffffffffffffffff166108fc479081150290604051600060405180830381858888f193505050501580156105e4573d6000803e3d6000fd5b506001600560016101000a81548160ff021916908315150217905550600060038190555060006004819055506106186108a1565b565b6060600180548060200260200160405190810160405280929190818152602001828054801561069e57602002820191906000526020600020905b8160009054906101000a900473ffffffffffffffffffffffffffffffffffffffff1673ffffffffffffffffffffffffffffffffffffffff1681526020019060010190808311610654575b5050505050905090565b6000600260009054906101000a900473ffffffffffffffffffffffffffffffffffffffff16905090565b60035481565b6000600354905090565b600560009054906101000a900460ff1681565b60008060009054906101000a900473ffffffffffffffffffffffffffffffffffffffff16905090565b600260009054906101000a900473ffffffffffffffffffffffffffffffffffffffff1681565b600560019054906101000a900460ff1681565b66038d7ea4c6800034101561076b57600080fd5b600560009054906101000a900460ff161561078557600080fd5b6001339080600181540180825580915050600190039060005260206000200160009091909190916101000a81548173ffffffffffffffffffffffffffffffffffffffff021916908373ffffffffffffffffffffffffffffffffffffffff160217905550600360008154809291906107fb90610c86565b919050555034600460008282546108129190610b98565b92505081905550565b6001818154811061082b57600080fd5b906000526020600020016000915054906101000a900473ffffffffffffffffffffffffffffffffffffffff1681565b60006001436108699190610bee565b404260018054905060405160200161088393929190610a94565b6040516020818303038152906040528051906020012060001c905090565b600160006108af9190610929565b6000600260006101000a81548173ffffffffffffffffffffffffffffffffffffffff021916908373ffffffffffffffffffffffffffffffffffffffff1602179055506000600560006101000a81548160ff0219169083151502179055506000600560016101000a81548160ff021916908315150217905550565b5080546000825590600052602060002090810190610947919061094a565b50565b5b8082111561096357600081600090555060010161094b565b5090565b60008135905061097681610d72565b92915050565b60006020828403121561098e57600080fd5b600061099c84828501610967565b91505092915050565b60006109b183836109bd565b60208301905092915050565b6109c681610c34565b82525050565b6109d581610c34565b82525050565b6109e481610c22565b82525050565b60006109f582610b6f565b6109ff8185610b87565b9350610a0a83610b5f565b8060005b83811015610a3b578151610a2288826109a5565b9750610a2d83610b7a565b925050600181019050610a0e565b5085935050505092915050565b610a5181610c46565b82525050565b610a68610a6382610c52565b610ccf565b82525050565b610a7781610c7c565b82525050565b610a8e610a8982610c7c565b610cd9565b82525050565b6000610aa08286610a57565b602082019150610ab08285610a7d565b602082019150610ac08284610a7d565b602082019150819050949350505050565b6000602082019050610ae660008301846109db565b92915050565b6000602082019050610b0160008301846109cc565b92915050565b60006020820190508181036000830152610b2181846109ea565b905092915050565b6000602082019050610b3e6000830184610a48565b92915050565b6000602082019050610b596000830184610a6e565b92915050565b6000819050602082019050919050565b600081519050919050565b6000602082019050919050565b600082825260208201905092915050565b6000610ba382610c7c565b9150610bae83610c7c565b9250827fffffffffffffffffffffffffffffffffffffffffffffffffffffffffffffffff03821115610be357610be2610d14565b5b828201905092915050565b6000610bf982610c7c565b9150610c0483610c7c565b925082821015610c1757610c16610d14565b5b828203905092915050565b6000610c2d82610c5c565b9050919050565b6000610c3f82610c5c565b9050919050565b60008115159050919050565b6000819050919050565b600073ffffffffffffffffffffffffffffffffffffffff82169050919050565b6000819050919050565b6000610c9182610c7c565b91507fffffffffffffffffffffffffffffffffffffffffffffffffffffffffffffffff821415610cc457610cc3610d14565b5b600182019050919050565b6000819050919050565b6000819050919050565b6000610cee82610c7c565b9150610cf983610c7c565b925082610d0957610d08610d43565b5b828206905092915050565b7f4e487b7100000000000000000000000000000000000000000000000000000000600052601160045260246000fd5b7f4e487b7100000000000000000000000000000000000000000000000000000000600052601260045260246000fd5b610d7b81610c7c565b8114610d8657600080fd5b5056fea26469706673582212208449b04695413a25a938be8cd762a8a166fd05a3c0f3f05c9d120684a7ae016364736f6c63430008000033",
  "linkReferences": {},
  "deployedLinkReferences": {}
}